{
  "_format": "hh-sol-artifact-1",
  "contractName": "MockFactory",
  "sourceName": "contracts/mocks/MockFactory.sol",
  "abi": [
    {
      "inputs": [
        {
          "internalType": "address",
          "name": "tokenA",
          "type": "address"
        },
        {
          "internalType": "address",
          "name": "tokenB",
          "type": "address"
        }
      ],
      "name": "getPair",
      "outputs": [
        {
          "internalType": "address",
          "name": "",
          "type": "address"
        }
      ],
      "stateMutability": "view",
      "type": "function"
    },
    {
      "inputs": [
        {
          "internalType": "bytes32",
          "name": "",
          "type": "bytes32"
        }
      ],
      "name": "pairs",
      "outputs": [
        {
          "internalType": "address",
          "name": "",
          "type": "address"
        }
      ],
      "stateMutability": "view",
      "type": "function"
    },
    {
      "inputs": [
        {
          "internalType": "address",
          "name": "tokenA",
          "type": "address"
        },
        {
          "internalType": "address",
          "name": "tokenB",
          "type": "address"
        },
        {
          "internalType": "address",
          "name": "pair",
          "type": "address"
        }
      ],
      "name": "setPair",
      "outputs": [],
      "stateMutability": "nonpayable",
      "type": "function"
    }
  ],
  "bytecode": "0x608060405234801561001057600080fd5b506102cc806100206000396000f3fe608060405234801561001057600080fd5b50600436106100415760003560e01c8063673e0481146100465780637bb410121461008b578063e6a43905146100a0575b600080fd5b61006f6100543660046101c4565b6000602081905290815260409020546001600160a01b031681565b6040516001600160a01b03909116815260200160405180910390f35b61009e6100993660046101f9565b6100b3565b005b61006f6100ae36600461023c565b610176565b8060008085856040516020016100ca92919061026f565b60405160208183030381529060405280519060200120815260200190815260200160002060006101000a8154816001600160a01b0302191690836001600160a01b0316021790555080600080848660405160200161012992919061026f565b60405160208183030381529060405280519060200120815260200190815260200160002060006101000a8154816001600160a01b0302191690836001600160a01b03160217905550505050565b6000806000848460405160200161018e92919061026f565b60408051808303601f19018152918152815160209283012083529082019290925201600020546001600160a01b03169392505050565b6000602082840312156101d657600080fd5b5035919050565b80356001600160a01b03811681146101f457600080fd5b919050565b60008060006060848603121561020e57600080fd5b610217846101dd565b9250610225602085016101dd565b9150610233604085016101dd565b90509250925092565b6000806040838503121561024f57600080fd5b610258836101dd565b9150610266602084016101dd565b90509250929050565b6bffffffffffffffffffffffff19606093841b811682529190921b1660148201526028019056fea26469706673582212203d7fc7a4f40494f679697c4b4cba5be11c141c0c2eefac9dc25fbb74a5ac5c2364736f6c63430008130033",
  "linkReferences": {},
  "deployedLinkReferences": {}
}