{
  "_format": "hh-sol-artifact-1",
  "contractName": "MockRouter",
  "sourceName": "contracts/mocks/MockRouter.sol",
  "abi": [
    {
      "inputs": [
        {
          "internalType": "address",
          "name": "_factory",
          "type": "address"
        },
        {
          "internalType": "string",
          "name": "",
          "type": "string"
        }
      ],
      "stateMutability": "nonpayable",
      "type": "constructor"
    },
    {
      "inputs": [],
      "name": "WETH",
      "outputs": [
        {
          "internalType": "address",
          "name": "",
          "type": "address"
        }
      ],
      "stateMutability": "view",
      "type": "function"
    },
    {
      "inputs": [],
      "name": "WETH_ADDR",
      "outputs": [
        {
          "internalType": "address",
          "name": "",
          "type": "address"
        }
      ],
      "stateMutability": "view",
      "type": "function"
    },
    {
      "inputs": [
        {
          "internalType": "address",
          "name": "token",
          "type": "address"
        },
        {
          "internalType": "uint256",
          "name": "amountTokenDesired",
          "type": "uint256"
        },
        {
          "internalType": "uint256",
          "name": "",
          "type": "uint256"
        },
        {
          "internalType": "uint256",
          "name": "",
          "type": "uint256"
        },
        {
          "internalType": "address",
          "name": "to",
          "type": "address"
        },
        {
          "internalType": "uint256",
          "name": "",
          "type": "uint256"
        }
      ],
      "name": "addLiquidityETH",
      "outputs": [
        {
          "internalType": "uint256",
          "name": "amountToken",
          "type": "uint256"
        },
        {
          "internalType": "uint256",
          "name": "amountETH",
          "type": "uint256"
        },
        {
          "internalType": "uint256",
          "name": "liquidity",
          "type": "uint256"
        }
      ],
      "stateMutability": "payable",
      "type": "function"
    },
    {
      "inputs": [],
      "name": "factory",
      "outputs": [
        {
          "internalType": "contract MockFactory",
          "name": "",
          "type": "address"
        }
      ],
      "stateMutability": "view",
      "type": "function"
    },
    {
      "inputs": [],
      "name": "factoryAddress",
      "outputs": [
        {
          "internalType": "address",
          "name": "",
          "type": "address"
        }
      ],
      "stateMutability": "view",
      "type": "function"
    },
    {
      "inputs": [
        {
          "internalType": "uint256",
          "name": "amountIn",
          "type": "uint256"
        },
        {
          "internalType": "address[]",
          "name": "path",
          "type": "address[]"
        }
      ],
      "name": "getAmountsOut",
      "outputs": [
        {
          "internalType": "uint256[]",
          "name": "amounts",
          "type": "uint256[]"
        }
      ],
      "stateMutability": "view",
      "type": "function"
    },
    {
      "inputs": [
        {
          "internalType": "address",
          "name": "",
          "type": "address"
        }
      ],
      "name": "priceOut",
      "outputs": [
        {
          "internalType": "uint256",
          "name": "",
          "type": "uint256"
        }
      ],
      "stateMutability": "view",
      "type": "function"
    },
    {
      "inputs": [
        {
          "internalType": "address",
          "name": "token",
          "type": "address"
        },
        {
          "internalType": "uint256",
          "name": "amountOut",
          "type": "uint256"
        }
      ],
      "name": "setPriceOut",
      "outputs": [],
      "stateMutability": "nonpayable",
      "type": "function"
    }
  ],
  "bytecode": "0x60a060405234801561001057600080fd5b50604051611e44380380611e4483398101604081905261002f916100f3565b600080546001600160a01b0319166001600160a01b0384161781556040518190610058906100d0565b6060808252600b908201526a577261707065642043524f60a81b608082015260a060208201819052600490820152635743524f60e01b60c0820152604081019190915260e001604051809103906000f0801580156100ba573d6000803e3d6000fd5b506001600160a01b0316608052506101dc915050565b6109b18061149383390190565b634e487b7160e01b600052604160045260246000fd5b6000806040838503121561010657600080fd5b82516001600160a01b038116811461011d57600080fd5b602084810151919350906001600160401b038082111561013c57600080fd5b818601915086601f83011261015057600080fd5b815181811115610162576101626100dd565b604051601f8201601f19908116603f0116810190838211818310171561018a5761018a6100dd565b8160405282815289868487010111156101a257600080fd5b600093505b828410156101c457848401860151818501870152928501926101a7565b60008684830101528096505050505050509250929050565b60805161128861020b6000396000818160e20152818161014d01528181610374015261049401526112886000f3fe608060405260043610620000855760003560e01c8063c45a01551162000054578063c45a01551462000172578063d06ca61f1462000194578063e49cadb114620001c8578063f305d719146200020557600080fd5b80636f347f96146200008a57806382dfc5f714620000ce578063966dae0e146200011d578063ad5c4648146200013d575b600080fd5b3480156200009757600080fd5b50620000bb620000a936600462000639565b60016020526000908152604090205481565b6040519081526020015b60405180910390f35b348015620000db57600080fd5b50620001047f000000000000000000000000000000000000000000000000000000000000000081565b6040516001600160a01b039091168152602001620000c5565b3480156200012a57600080fd5b506000546001600160a01b031662000104565b3480156200014a57600080fd5b507f000000000000000000000000000000000000000000000000000000000000000062000104565b3480156200017f57600080fd5b5060005462000104906001600160a01b031681565b348015620001a157600080fd5b50620001b9620001b336600462000660565b62000238565b604051620000c59190620006e4565b348015620001d557600080fd5b5062000203620001e73660046200072a565b6001600160a01b03909116600090815260016020526040902055565b005b6200021c6200021636600462000759565b62000359565b60408051938452602084019290925290820152606001620000c5565b60608167ffffffffffffffff811115620002565762000256620007bc565b60405190808252806020026020018201604052801562000280578160200160208202803683370190505b50905083816000815181106200029a576200029a620007d2565b602090810291909101015260015b828110156200035157670de0b6b3a764000060016000868685818110620002d357620002d3620007d2565b9050602002016020810190620002ea919062000639565b6001600160a01b03168152602081019190915260400160002054620003109087620007fe565b6200031c91906200081e565b828281518110620003315762000331620007d2565b602090810291909101015280620003488162000841565b915050620002a8565b509392505050565b6000805460405163e6a4390560e01b81526001600160a01b037f00000000000000000000000000000000000000000000000000000000000000008116600483015289811660248301528392839283929091169063e6a4390590604401602060405180830381865afa158015620003d3573d6000803e3d6000fd5b505050506040513d601f19601f82011682018060405250810190620003f991906200085d565b90506001600160a01b03811662000511576000806040516200041b9062000612565b6060808252600890820152672628102a27a5a2a760c11b608082015260a0602082018190526002908201526104c560f41b60c0820152604081019190915260e001604051809103906000f08015801562000479573d6000803e3d6000fd5b50600054604051633dda080960e11b81526001600160a01b037f0000000000000000000000000000000000000000000000000000000000000000811660048301528e811660248301528381166044830152929350911690637bb4101290606401600060405180830381600087803b158015620004f457600080fd5b505af115801562000509573d6000803e3d6000fd5b509293505050505b6040516340c10f1960e01b8152306004820152670de0b6b3a764000060248201526001600160a01b038216906340c10f1990604401600060405180830381600087803b1580156200056157600080fd5b505af115801562000576573d6000803e3d6000fd5b505060405163a9059cbb60e01b81526001600160a01b038981166004830152670de0b6b3a764000060248301528416925063a9059cbb91506044016020604051808303816000875af1158015620005d1573d6000803e3d6000fd5b505050506040513d601f19601f82011682018060405250810190620005f791906200087d565b509799349950670de0b6b3a764000098509650505050505050565b6109b180620008a283390190565b6001600160a01b03811681146200063657600080fd5b50565b6000602082840312156200064c57600080fd5b8135620006598162000620565b9392505050565b6000806000604084860312156200067657600080fd5b83359250602084013567ffffffffffffffff808211156200069657600080fd5b818601915086601f830112620006ab57600080fd5b813581811115620006bb57600080fd5b8760208260051b8501011115620006d157600080fd5b6020830194508093505050509250925092565b6020808252825182820181905260009190848201906040850190845b818110156200071e5783518352928401929184019160010162000700565b50909695505050505050565b600080604083850312156200073e57600080fd5b82356200074b8162000620565b946020939093013593505050565b60008060008060008060c087890312156200077357600080fd5b8635620007808162000620565b95506020870135945060408701359350606087013592506080870135620007a78162000620565b8092505060a087013590509295509295509295565b634e487b7160e01b600052604160045260246000fd5b634e487b7160e01b600052603260045260246000fd5b634e487b7160e01b600052601160045260246000fd5b8082028115828204841417620008185762000818620007e8565b92915050565b6000826200083c57634e487b7160e01b600052601260045260246000fd5b500490565b600060018201620008565762000856620007e8565b5060010190565b6000602082840312156200087057600080fd5b8151620006598162000620565b6000602082840312156200089057600080fd5b815180151581146200065957600080fdfe60806040526002805460ff191660121790553480156200001e57600080fd5b50604051620009b1380380620009b1833981016040819052620000419162000142565b60006200004f848262000244565b5060016200005e838262000244565b5060038190553360009081526004602052604090205550620003109050565b634e487b7160e01b600052604160045260246000fd5b600082601f830112620000a557600080fd5b81516001600160401b0380821115620000c257620000c26200007d565b604051601f8301601f19908116603f01168101908282118183101715620000ed57620000ed6200007d565b816040528381526020925086838588010111156200010a57600080fd5b600091505b838210156200012e57858201830151818301840152908201906200010f565b600093810190920192909252949350505050565b6000806000606084860312156200015857600080fd5b83516001600160401b03808211156200017057600080fd5b6200017e8783880162000093565b945060208601519150808211156200019557600080fd5b50620001a48682870162000093565b925050604084015190509250925092565b600181811c90821680620001ca57607f821691505b602082108103620001eb57634e487b7160e01b600052602260045260246000fd5b50919050565b601f8211156200023f57600081815260208120601f850160051c810160208610156200021a5750805b601f850160051c820191505b818110156200023b5782815560010162000226565b5050505b505050565b81516001600160401b038111156200026057620002606200007d565b6200027881620002718454620001b5565b84620001f1565b602080601f831160018114620002b05760008415620002975750858301515b600019600386901b1c1916600185901b1785556200023b565b600085815260208120601f198616915b82811015620002e157888601518255948401946001909101908401620002c0565b5085821015620003005787850151600019600388901b60f8161c191681555b5050505050600190811b01905550565b61069180620003206000396000f3fe608060405234801561001057600080fd5b506004361061009e5760003560e01c806340c10f191161006657806340c10f191461012d57806370a082311461014257806395d89b4114610162578063a9059cbb1461016a578063dd62ed3e1461017d57600080fd5b806306fdde03146100a3578063095ea7b3146100c157806318160ddd146100e457806323b872dd146100fb578063313ce5671461010e575b600080fd5b6100ab6101a8565b6040516100b891906104c0565b60405180910390f35b6100d46100cf36600461052a565b610236565b60405190151581526020016100b8565b6100ed60035481565b6040519081526020016100b8565b6100d4610109366004610554565b610265565b60025461011b9060ff1681565b60405160ff90911681526020016100b8565b61014061013b36600461052a565b6103c1565b005b6100ed610150366004610590565b60046020526000908152604090205481565b6100ab61040b565b6100d461017836600461052a565b610418565b6100ed61018b3660046105b2565b600560209081526000928352604080842090915290825290205481565b600080546101b5906105e5565b80601f01602080910402602001604051908101604052809291908181526020018280546101e1906105e5565b801561022e5780601f106102035761010080835404028352916020019161022e565b820191906000526020600020905b81548152906001019060200180831161021157829003601f168201915b505050505081565b3360009081526005602090815260408083206001600160a01b0386168452909152902081905560015b92915050565b6001600160a01b0383166000908152600460205260408120548211156102c65760405162461bcd60e51b8152602060048201526011602482015270494e53554646494349454e545f46524f4d60781b60448201526064015b60405180910390fd5b6001600160a01b03841660009081526005602090815260408083203384529091529020548211156103255760405162461bcd60e51b8152602060048201526009602482015268414c4c4f57414e434560b81b60448201526064016102bd565b6001600160a01b038416600090815260056020908152604080832033845290915281208054849290610358908490610635565b90915550506001600160a01b03841660009081526004602052604081208054849290610385908490610635565b90915550506001600160a01b038316600090815260046020526040812080548492906103b2908490610648565b90915550600195945050505050565b6001600160a01b038216600090815260046020526040812080548392906103e9908490610648565b9250508190555080600360008282546104029190610648565b90915550505050565b600180546101b5906105e5565b336000908152600460205260408120548211156104665760405162461bcd60e51b815260206004820152600c60248201526b125394d551919250d251539560a21b60448201526064016102bd565b3360009081526004602052604081208054849290610485908490610635565b90915550506001600160a01b038316600090815260046020526040812080548492906104b2908490610648565b909155506001949350505050565b600060208083528351808285015260005b818110156104ed578581018301518582016040015282016104d1565b506000604082860101526040601f19601f8301168501019250505092915050565b80356001600160a01b038116811461052557600080fd5b919050565b6000806040838503121561053d57600080fd5b6105468361050e565b946020939093013593505050565b60008060006060848603121561056957600080fd5b6105728461050e565b92506105806020850161050e565b9150604084013590509250925092565b6000602082840312156105a257600080fd5b6105ab8261050e565b9392505050565b600080604083850312156105c557600080fd5b6105ce8361050e565b91506105dc6020840161050e565b90509250929050565b600181811c908216806105f957607f821691505b60208210810361061957634e487b7160e01b600052602260045260246000fd5b50919050565b634e487b7160e01b600052601160045260246000fd5b8181038181111561025f5761025f61061f565b8082018082111561025f5761025f61061f56fea2646970667358221220514a341672819e24070d8490821ceadbf785df7d13d1302df73e217fbcd39a7064736f6c63430008130033a26469706673582212206e1c243ac639b384878f7a5de6225544f39e4d0089a989036186a6818d703ebe64736f6c6343000813003360806040526002805460ff191660121790553480156200001e57600080fd5b50604051620009b1380380620009b1833981016040819052620000419162000142565b60006200004f848262000244565b5060016200005e838262000244565b5060038190553360009081526004602052604090205550620003109050565b634e487b7160e01b600052604160045260246000fd5b600082601f830112620000a557600080fd5b81516001600160401b0380821115620000c257620000c26200007d565b604051601f8301601f19908116603f01168101908282118183101715620000ed57620000ed6200007d565b816040528381526020925086838588010111156200010a57600080fd5b600091505b838210156200012e57858201830151818301840152908201906200010f565b600093810190920192909252949350505050565b6000806000606084860312156200015857600080fd5b83516001600160401b03808211156200017057600080fd5b6200017e8783880162000093565b945060208601519150808211156200019557600080fd5b50620001a48682870162000093565b925050604084015190509250925092565b600181811c90821680620001ca57607f821691505b602082108103620001eb57634e487b7160e01b600052602260045260246000fd5b50919050565b601f8211156200023f57600081815260208120601f850160051c810160208610156200021a5750805b601f850160051c820191505b818110156200023b5782815560010162000226565b5050505b505050565b81516001600160401b038111156200026057620002606200007d565b6200027881620002718454620001b5565b84620001f1565b602080601f831160018114620002b05760008415620002975750858301515b600019600386901b1c1916600185901b1785556200023b565b600085815260208120601f198616915b82811015620002e157888601518255948401946001909101908401620002c0565b5085821015620003005787850151600019600388901b60f8161c191681555b5050505050600190811b01905550565b61069180620003206000396000f3fe608060405234801561001057600080fd5b506004361061009e5760003560e01c806340c10f191161006657806340c10f191461012d57806370a082311461014257806395d89b4114610162578063a9059cbb1461016a578063dd62ed3e1461017d57600080fd5b806306fdde03146100a3578063095ea7b3146100c157806318160ddd146100e457806323b872dd146100fb578063313ce5671461010e575b600080fd5b6100ab6101a8565b6040516100b891906104c0565b60405180910390f35b6100d46100cf36600461052a565b610236565b60405190151581526020016100b8565b6100ed60035481565b6040519081526020016100b8565b6100d4610109366004610554565b610265565b60025461011b9060ff1681565b60405160ff90911681526020016100b8565b61014061013b36600461052a565b6103c1565b005b6100ed610150366004610590565b60046020526000908152604090205481565b6100ab61040b565b6100d461017836600461052a565b610418565b6100ed61018b3660046105b2565b600560209081526000928352604080842090915290825290205481565b600080546101b5906105e5565b80601f01602080910402602001604051908101604052809291908181526020018280546101e1906105e5565b801561022e5780601f106102035761010080835404028352916020019161022e565b820191906000526020600020905b81548152906001019060200180831161021157829003601f168201915b505050505081565b3360009081526005602090815260408083206001600160a01b0386168452909152902081905560015b92915050565b6001600160a01b0383166000908152600460205260408120548211156102c65760405162461bcd60e51b8152602060048201526011602482015270494e53554646494349454e545f46524f4d60781b60448201526064015b60405180910390fd5b6001600160a01b03841660009081526005602090815260408083203384529091529020548211156103255760405162461bcd60e51b8152602060048201526009602482015268414c4c4f57414e434560b81b60448201526064016102bd565b6001600160a01b038416600090815260056020908152604080832033845290915281208054849290610358908490610635565b90915550506001600160a01b03841660009081526004602052604081208054849290610385908490610635565b90915550506001600160a01b038316600090815260046020526040812080548492906103b2908490610648565b90915550600195945050505050565b6001600160a01b038216600090815260046020526040812080548392906103e9908490610648565b9250508190555080600360008282546104029190610648565b90915550505050565b600180546101b5906105e5565b336000908152600460205260408120548211156104665760405162461bcd60e51b815260206004820152600c60248201526b125394d551919250d251539560a21b60448201526064016102bd565b3360009081526004602052604081208054849290610485908490610635565b90915550506001600160a01b038316600090815260046020526040812080548492906104b2908490610648565b909155506001949350505050565b600060208083528351808285015260005b818110156104ed578581018301518582016040015282016104d1565b506000604082860101526040601f19601f8301168501019250505092915050565b80356001600160a01b038116811461052557600080fd5b919050565b6000806040838503121561053d57600080fd5b6105468361050e565b946020939093013593505050565b60008060006060848603121561056957600080fd5b6105728461050e565b92506105806020850161050e565b9150604084013590509250925092565b6000602082840312156105a257600080fd5b6105ab8261050e565b9392505050565b600080604083850312156105c557600080fd5b6105ce8361050e565b91506105dc6020840161050e565b90509250929050565b600181811c908216806105f957607f821691505b60208210810361061957634e487b7160e01b600052602260045260246000fd5b50919050565b634e487b7160e01b600052601160045260246000fd5b8181038181111561025f5761025f61061f565b8082018082111561025f5761025f61061f56fea2646970667358221220514a341672819e24070d8490821ceadbf785df7d13d1302df73e217fbcd39a7064736f6c63430008130033",
  "linkReferences": {},
  "deployedLinkReferences": {}
}