{
  "_format": "hh-sol-artifact-1",
  "contractName": "Freequidity",
  "sourceName": "contracts/Freequidity.sol",
  "abi": [
    {
      "inputs": [
        {
          "internalType": "address",
          "name": "_tp",
          "type": "address"
        },
        {
          "internalType": "address",
          "name": "_router",
          "type": "address"
        }
      ],
      "stateMutability": "nonpayable",
      "type": "constructor"
    },
    {
      "anonymous": false,
      "inputs": [
        {
          "indexed": true,
          "internalType": "address",
          "name": "pair",
          "type": "address"
        },
        {
          "indexed": false,
          "internalType": "uint256",
          "name": "amountToken",
          "type": "uint256"
        },
        {
          "indexed": false,
          "internalType": "uint256",
          "name": "amountETH",
          "type": "uint256"
        },
        {
          "indexed": false,
          "internalType": "uint256",
          "name": "liquidity",
          "type": "uint256"
        }
      ],
      "name": "LiquidityAddedAndBurned",
      "type": "event"
    },
    {
      "anonymous": false,
      "inputs": [
        {
          "indexed": false,
          "internalType": "address",
          "name": "token",
          "type": "address"
        },
        {
          "indexed": false,
          "internalType": "address",
          "name": "to",
          "type": "address"
        },
        {
          "indexed": false,
          "internalType": "uint256",
          "name": "amount",
          "type": "uint256"
        }
      ],
      "name": "OwnerWithdrawn",
      "type": "event"
    },
    {
      "anonymous": false,
      "inputs": [
        {
          "indexed": true,
          "internalType": "address",
          "name": "buyer",
          "type": "address"
        },
        {
          "indexed": false,
          "internalType": "uint256",
          "name": "croIn",
          "type": "uint256"
        },
        {
          "indexed": false,
          "internalType": "uint256",
          "name": "tpOut",
          "type": "uint256"
        }
      ],
      "name": "SwapPaidWithTP",
      "type": "event"
    },
    {
      "inputs": [],
      "name": "DEAD",
      "outputs": [
        {
          "internalType": "address",
          "name": "",
          "type": "address"
        }
      ],
      "stateMutability": "view",
      "type": "function"
    },
    {
      "inputs": [],
      "name": "TP",
      "outputs": [
        {
          "internalType": "contract IERC20",
          "name": "",
          "type": "address"
        }
      ],
      "stateMutability": "view",
      "type": "function"
    },
    {
      "inputs": [],
      "name": "owner",
      "outputs": [
        {
          "internalType": "address",
          "name": "",
          "type": "address"
        }
      ],
      "stateMutability": "view",
      "type": "function"
    },
    {
      "inputs": [
        {
          "internalType": "address",
          "name": "token",
          "type": "address"
        },
        {
          "internalType": "address",
          "name": "to",
          "type": "address"
        },
        {
          "internalType": "uint256",
          "name": "amount",
          "type": "uint256"
        }
      ],
      "name": "ownerWithdrawToken",
      "outputs": [],
      "stateMutability": "nonpayable",
      "type": "function"
    },
    {
      "inputs": [
        {
          "internalType": "uint256",
          "name": "croAmount",
          "type": "uint256"
        }
      ],
      "name": "quoteTPForCRO",
      "outputs": [
        {
          "internalType": "uint256",
          "name": "tpAmount",
          "type": "uint256"
        }
      ],
      "stateMutability": "view",
      "type": "function"
    },
    {
      "inputs": [],
      "name": "reserveBufferBips",
      "outputs": [
        {
          "internalType": "uint256",
          "name": "",
          "type": "uint256"
        }
      ],
      "stateMutability": "view",
      "type": "function"
    },
    {
      "inputs": [],
      "name": "reserveMultiplierPct",
      "outputs": [
        {
          "internalType": "uint256",
          "name": "",
          "type": "uint256"
        }
      ],
      "stateMutability": "view",
      "type": "function"
    },
    {
      "inputs": [],
      "name": "router",
      "outputs": [
        {
          "internalType": "contract IUniswapV2Router02",
          "name": "",
          "type": "address"
        }
      ],
      "stateMutability": "view",
      "type": "function"
    },
    {
      "inputs": [
        {
          "internalType": "uint256",
          "name": "bips",
          "type": "uint256"
        }
      ],
      "name": "setReserveBufferBips",
      "outputs": [],
      "stateMutability": "nonpayable",
      "type": "function"
    },
    {
      "inputs": [
        {
          "internalType": "uint256",
          "name": "pct",
          "type": "uint256"
        }
      ],
      "name": "setReserveMultiplierPct",
      "outputs": [],
      "stateMutability": "nonpayable",
      "type": "function"
    },
    {
      "inputs": [
        {
          "internalType": "uint256",
          "name": "slippageBips",
          "type": "uint256"
        },
        {
          "internalType": "uint256",
          "name": "deadline",
          "type": "uint256"
        }
      ],
      "name": "swapCROForTPAndBurnLP",
      "outputs": [
        {
          "internalType": "uint256",
          "name": "",
          "type": "uint256"
        },
        {
          "internalType": "uint256",
          "name": "",
          "type": "uint256"
        }
      ],
      "stateMutability": "payable",
      "type": "function"
    },
    {
      "inputs": [
        {
          "internalType": "address",
          "name": "newOwner",
          "type": "address"
        }
      ],
      "name": "transferOwnership",
      "outputs": [],
      "stateMutability": "nonpayable",
      "type": "function"
    },
    {
      "stateMutability": "payable",
      "type": "receive"
    }
  ],
  "bytecode": "0x60e060405261dead60c05260c860025560646003553480156200002157600080fd5b50604051620015ee380380620015ee8339810160408190526200004491620000f0565b6001600160a01b038216158015906200006557506001600160a01b03811615155b620000a55760405162461bcd60e51b815260206004820152600c60248201526b5a45524f5f4144445245535360a01b604482015260640160405180910390fd5b6001600160a01b039182166080521660a052600080546001600160a01b031916331790556001805562000128565b80516001600160a01b0381168114620000eb57600080fd5b919050565b600080604083850312156200010457600080fd5b6200010f83620000d3565b91506200011f60208401620000d3565b90509250929050565b60805160a05160c05161143c620001b26000396000818160c90152610f8901526000818161027201528181610686015281816108a2015281816109b101528181610ccf01528181610d4b0152610ddb01526000818161013c0152818161049e01528181610573015281816106b50152818161095701528181610c800152610e81015261143c6000f3fe6080604052600436106100ab5760003560e01c8063cd756b7711610064578063cd756b77146101ca578063d8e79e2a146101ea578063eb50f0ea1461020a578063f2fde38b14610220578063f585b64f14610240578063f887ea401461026057600080fd5b806303fd2a45146100b757806338f940f314610108578063639807d01461012a5780638da5cb5b1461015e578063abe106a41461017e578063b857ab9b146101a657600080fd5b366100b257005b600080fd5b3480156100c357600080fd5b506100eb7f000000000000000000000000000000000000000000000000000000000000000081565b6040516001600160a01b0390911681526020015b60405180910390f35b34801561011457600080fd5b506101286101233660046110e9565b610294565b005b34801561013657600080fd5b506100eb7f000000000000000000000000000000000000000000000000000000000000000081565b34801561016a57600080fd5b506000546100eb906001600160a01b031681565b61019161018c366004611102565b61031e565b604080519283526020830191909152016100ff565b3480156101b257600080fd5b506101bc60025481565b6040519081526020016100ff565b3480156101d657600080fd5b506101286101e53660046110e9565b6107cf565b3480156101f657600080fd5b506101bc6102053660046110e9565b610843565b34801561021657600080fd5b506101bc60035481565b34801561022c57600080fd5b5061012861023b36600461113c565b610a5f565b34801561024c57600080fd5b5061012861025b366004611160565b610af0565b34801561026c57600080fd5b506100eb7f000000000000000000000000000000000000000000000000000000000000000081565b6000546001600160a01b031633146102c75760405162461bcd60e51b81526004016102be906111a1565b60405180910390fd5b606481101580156102da57506103e88111155b6103195760405162461bcd60e51b815260206004820152601060248201526f7063742d6f75742d6f662d72616e676560801b60448201526064016102be565b600255565b60008060026001540361035f5760405162461bcd60e51b815260206004820152600960248201526814915153951490539560ba1b60448201526064016102be565b60026001553461039f5760405162461bcd60e51b815260206004820152600b60248201526a1393d7d0d493d7d4d1539560aa1b60448201526064016102be565b6103e88411156103e55760405162461bcd60e51b81526020600482015260116024820152700a69892a0a0828e8abea89e9ebe90928e9607b1b60448201526064016102be565b60006103f034610843565b90506000811161043b5760405162461bcd60e51b81526020600482015260166024820152751393d7d410525497d3d497d6915493d7d3d55514155560521b60448201526064016102be565b60006127106003548361044e91906111da565b61045891906111f7565b60646002548461046891906111da565b61047291906111f7565b61047c9190611219565b6040516370a0823160e01b815230600482015290915081906001600160a01b037f000000000000000000000000000000000000000000000000000000000000000016906370a0823190602401602060405180830381865afa1580156104e5573d6000803e3d6000fd5b505050506040513d601f19601f82011682018060405250810190610509919061122c565b10156105575760405162461bcd60e51b815260206004820152601b60248201527f494e53554646494349454e545f54505f494e5f434f4e5452414354000000000060448201526064016102be565b60405163a9059cbb60e01b8152336004820152602481018390527f00000000000000000000000000000000000000000000000000000000000000006001600160a01b03169063a9059cbb906044016020604051808303816000875af11580156105c4573d6000803e3d6000fd5b505050506040513d601f19601f820116820180604052508101906105e89190611245565b6106345760405162461bcd60e51b815260206004820152601a60248201527f54505f5452414e534645525f544f5f555345525f4641494c454400000000000060448201526064016102be565b604080513481526020810184905233917fa27533ad90180e046171231f2d8132f800b80ad9636126de47b7244951b00b87910160405180910390a260405163095ea7b360e01b81526001600160a01b037f000000000000000000000000000000000000000000000000000000000000000081166004830152602482018490527f0000000000000000000000000000000000000000000000000000000000000000169063095ea7b3906044016020604051808303816000875af11580156106fe573d6000803e3d6000fd5b505050506040513d601f19601f820116820180604052508101906107229190611245565b61075f5760405162461bcd60e51b815260206004820152600e60248201526d1054141493d59157d1905253115160921b60448201526064016102be565b600061271061076e8882611267565b61077890856111da565b61078291906111f7565b905060006127106107938982611267565b61079d90346111da565b6107a791906111f7565b90506000806107b9863486868d610c69565b60018055969b969a509598505050505050505050565b6000546001600160a01b031633146107f95760405162461bcd60e51b81526004016102be906111a1565b6103e881111561083e5760405162461bcd60e51b815260206004820152601060248201526f6275666665722d746f6f2d6c6172676560801b60448201526064016102be565b600355565b600080821161087f5760405162461bcd60e51b81526020600482015260086024820152675a45524f5f43524f60c01b60448201526064016102be565b6040805160028082526060820183526000926020830190803683370190505090507f00000000000000000000000000000000000000000000000000000000000000006001600160a01b031663ad5c46486040518163ffffffff1660e01b8152600401602060405180830381865afa1580156108fe573d6000803e3d6000fd5b505050506040513d601f19601f820116820180604052508101906109229190611290565b81600081518110610935576109356112ad565b60200260200101906001600160a01b031690816001600160a01b0316815250507f000000000000000000000000000000000000000000000000000000000000000081600181518110610989576109896112ad565b6001600160a01b03928316602091820292909201015260405163d06ca61f60e01b81526000917f0000000000000000000000000000000000000000000000000000000000000000169063d06ca61f906109e890879086906004016112c3565b600060405180830381865afa158015610a05573d6000803e3d6000fd5b505050506040513d6000823e601f3d908101601f19168201604052610a2d919081019061131a565b90508060018251610a3e9190611267565b81518110610a4e57610a4e6112ad565b602002602001015192505050919050565b6000546001600160a01b03163314610a895760405162461bcd60e51b81526004016102be906111a1565b6001600160a01b038116610ace5760405162461bcd60e51b815260206004820152600c60248201526b5a45524f5f4144445245535360a01b60448201526064016102be565b600080546001600160a01b0319166001600160a01b0392909216919091179055565b6000546001600160a01b03163314610b1a5760405162461bcd60e51b81526004016102be906111a1565b6001600160a01b038216610b5a5760405162461bcd60e51b81526020600482015260076024820152665a45524f5f544f60c81b60448201526064016102be565b6001600160a01b038316610ba4576040516001600160a01b0383169082156108fc029083906000818181858888f19350505050158015610b9e573d6000803e3d6000fd5b50610c19565b60405163a9059cbb60e01b81526001600160a01b0383811660048301526024820183905284169063a9059cbb906044016020604051808303816000875af1158015610bf3573d6000803e3d6000fd5b505050506040513d601f19601f82011682018060405250810190610c179190611245565b505b604080516001600160a01b038086168252841660208201529081018290527f94a52c597edbfb3aac8c58a7636b4c53452088eff45dc4e971bcd1177bc206759060600160405180910390a1505050565b60405163f305d71960e01b81526001600160a01b037f00000000000000000000000000000000000000000000000000000000000000008116600483015260248201879052604482018590526064820184905230608483015260a4820183905260009182917f0000000000000000000000000000000000000000000000000000000000000000169063f305d71990889060c40160606040518083038185885af1158015610d19573d6000803e3d6000fd5b50505050506040513d601f19601f82011682018060405250810190610d3e91906113d8565b90915090508092505060007f00000000000000000000000000000000000000000000000000000000000000006001600160a01b031663c45a01556040518163ffffffff1660e01b8152600401602060405180830381865afa158015610da7573d6000803e3d6000fd5b505050506040513d601f19601f82011682018060405250810190610dcb9190611290565b6001600160a01b031663e6a439057f00000000000000000000000000000000000000000000000000000000000000006001600160a01b031663ad5c46486040518163ffffffff1660e01b8152600401602060405180830381865afa158015610e37573d6000803e3d6000fd5b505050506040513d601f19601f82011682018060405250810190610e5b9190611290565b60405160e083901b6001600160e01b03191681526001600160a01b0391821660048201527f00000000000000000000000000000000000000000000000000000000000000009091166024820152604401602060405180830381865afa158015610ec8573d6000803e3d6000fd5b505050506040513d601f19601f82011682018060405250810190610eec9190611290565b90506001600160a01b03811615611099576040516370a0823160e01b815230600482015281906000906001600160a01b038316906370a0823190602401602060405180830381865afa158015610f46573d6000803e3d6000fd5b505050506040513d601f19601f82011682018060405250810190610f6a919061122c565b905080156110465760405163a9059cbb60e01b81526001600160a01b037f0000000000000000000000000000000000000000000000000000000000000000811660048301526024820183905283169063a9059cbb906044016020604051808303816000875af1158015610fe1573d6000803e3d6000fd5b505050506040513d601f19601f820116820180604052508101906110059190611245565b6110425760405162461bcd60e51b815260206004820152600e60248201526d131417d095549397d1905253115160921b60448201526064016102be565b8093505b604080518b8152602081018b90529081018690526001600160a01b038416907ff15c6eea5bd992fa93ee02d8fc9ddcd5dec9820b4ab1fbe235d6f45fd60cafe19060600160405180910390a250506110de565b60408051898152602081018990529081018490526000907ff15c6eea5bd992fa93ee02d8fc9ddcd5dec9820b4ab1fbe235d6f45fd60cafe19060600160405180910390a25b509550959350505050565b6000602082840312156110fb57600080fd5b5035919050565b6000806040838503121561111557600080fd5b50508035926020909101359150565b6001600160a01b038116811461113957600080fd5b50565b60006020828403121561114e57600080fd5b813561115981611124565b9392505050565b60008060006060848603121561117557600080fd5b833561118081611124565b9250602084013561119081611124565b929592945050506040919091013590565b6020808252600990820152682727aa2fa7aba722a960b91b604082015260600190565b634e487b7160e01b600052601160045260246000fd5b80820281158282048414176111f1576111f16111c4565b92915050565b60008261121457634e487b7160e01b600052601260045260246000fd5b500490565b808201808211156111f1576111f16111c4565b60006020828403121561123e57600080fd5b5051919050565b60006020828403121561125757600080fd5b8151801515811461115957600080fd5b818103818111156111f1576111f16111c4565b634e487b7160e01b600052604160045260246000fd5b6000602082840312156112a257600080fd5b815161115981611124565b634e487b7160e01b600052603260045260246000fd5b6000604082018483526020604081850152818551808452606086019150828701935060005b8181101561130d5784516001600160a01b0316835293830193918301916001016112e8565b5090979650505050505050565b6000602080838503121561132d57600080fd5b825167ffffffffffffffff8082111561134557600080fd5b818501915085601f83011261135957600080fd5b81518181111561136b5761136b61127a565b8060051b604051601f19603f830116810181811085821117156113905761139061127a565b6040529182528482019250838101850191888311156113ae57600080fd5b938501935b828510156113cc578451845293850193928501926113b3565b98975050505050505050565b6000806000606084860312156113ed57600080fd5b835192506020840151915060408401519050925092509256fea264697066735822122010c45ec92252140bd5e87d2bd4fde70d05ce2336142605944dc7f369e23d5fd664736f6c63430008130033",
  "linkReferences": {},
  "deployedLinkReferences": {}
}